S00D00007065705F68662E73333775
S113000000000220A9050000D5050000D505000068
S1130010D5050000D5050000D5050000D505000074
S1130020D5050000D5050000D505000051130000DA
S1130030D5050000D5050000F114000035150000B9
S1130040D5050000E55B0000D5050000D5050000DE
S1130050D5050000D5050000D5050000D505000034
S1130060D5050000D5050000D5050000855B00001E
S1130070D5050000D5050000D5050000D505000014
S1130080D5050000D5050000D5050000D505000004
S1130090190A0000D5050000D5050000D5050000AB
S11300A0D5050000D5050000D5050000D5050000E4
S11300B0D5050000D5050000D5050000D5050000D4
S11300C0D5050000D5050000D5050000D5050000C4
S11300D0D5050000D5050000D505000010B5054C78
S11300E0237833B9044B13B10448AFF300800123E0
S11300F0237010BD8C00002000000000AC7C0000C8
S1130100084B10B51BB108480849AFF300800848F4
S1130110036803B910BD074B002BFBD0BDE81040AA
S1130120184700BF00000000AC7C000090000020D5
S11301308800002000000000154B002B08BF134B63
S11301409D46A3F5803A00218B460F461348144A76
S1130150121A06F076FA0F4B002B00D098470E4B7C
S1130160002B00D098470020002104000D000D480A
S1130170002802D00C48AFF3008006F031FA2000CA
S1130180290005F05FFD06F021F900BF000008001A
S11301900000022000000000000000008C0000208D
S11301A070260020000000000000000080B485B02C
S11301B000AF786039607B6803F10473DA003B6850
S11301C013449B00FB60FB681B6818461437BD464C
S11301D05DF8047B704700BF80B582B000AF034672
S11301E03960FB71FB79002B1FD0FB79012B19D0EF
S11301F0FB79022B13D0FB79032B0DD0FB79042B55
S113020007D0FB79052B02D141F6FF730FE00023E1
S11302100DE04FF6FF730AE04FF6FF7307E04FF669
S1130220FF7304E04FF6FF7301E04FF6FF733A6883
S1130230134103F00103002B04D10B4840F2593160
S113024003F086F90949FA793B68012000FA03F3BF
S113025018461346DB0013449B000B4410335860CC
S11302600837BD4680BD00BFA87300000060004091
S113027080B582B000AF03463960FB71FB79002B77
S11302801FD0FB79012B19D0FB79022B13D0FB79FA
S1130290032B0DD0FB79042B07D0FB79052B02D15E
S11302A041F6FF730FE000230DE04FF6FF730AE001
S11302B04FF6FF7307E04FF6FF7304E04FF6FF734A
S11302C001E04FF6FF733A68134103F00103002B7A
S11302D004D10C4840F2713103F03AF9FA7913462B
S11302E0DB0013449B000C3303F1804303F5C0434C
S11302F018463968FFF75AFF034618460837BD46C3
S113030080BD00BFA873000080B582B000AF034673
S11303103960FB71FB79002B1FD0FB79012B19D0BD
S1130320FB79022B13D0FB79032B0DD0FB79042B23
S113033007D0FB79052B02D141F6FF730FE00023B0
S11303400DE04FF6FF730AE04FF6FF7307E04FF638
S1130350FF7304E04FF6FF7301E04FF6FF733A6852
S1130360134103F00103002B04D10B4840F2863102
S113037003F0EEF80949FA793B68012000FA03F327
S113038018461346DB0013449B000B4410331860DB
S11303900837BD4680BD00BFA87300000060004060
S11303A080B582B000AF03463960FB71FB79002B46
S11303B01FD0FB79012B19D0FB79022B13D0FB79C9
S11303C0032B0DD0FB79042B07D0FB79052B02D12D
S11303D041F6FF730FE000230DE04FF6FF730AE0D0
S11303E04FF6FF7307E04FF6FF7304E04FF6FF7319
S11303F001E04FF6FF733A68134103F00103002B49
S113040004D10B4840F29F3103F0A2F80949FA796C
S11304103B68012000FA03F318461346DB0013443B
S11304209B000B44183318600837BD4680BD00BFDD
S1130430A87300000060004080B582B000AF12488D
S1130440012103F06DFD1148012103F069FD002332
S11304507B6011E00E4A7B6812F833100C4A7B680B
S1130460DB0013445B68084619460422002304F0A9
S1130470CBFA7B6801337B607B68012BEADD0023C8
S113048018460837BD4680BD4081040000D20400F0
S1130490FC73000080B582B000AF78607B68002BED
S11304A011DB7B68012B0EDC0A4A7B6812F83310DF
S11304B0084A7B68DB0013445B6808461946FFF76B
S11304C08BFE002301E04FF0FF3318460837BD468A
S11304D080BD00BFFC73000080B584B000AF7860BD
S11304E04FF0FF33FB607B68002B11DB7B68012B33
S11304F00EDC0A4A7B6812F83310084A7B68DB007A
S113050013445B6808461946FFF7B2FE0346FB60D6
S1130510FB6818461037BD4680BD00BFFC73000061
S113052080B582B000AF78607B68002B11DB7B68FC
S1130530012B0EDC0A4A7B6812F83310084A7B68E8
S1130540DB0013445B6808461946FFF7DDFE002311
S113055001E04FF0FF3318460837BD4680BD00BFA9
S1130560FC73000080B582B000AF78607B68002B1C
S113057011DB7B68012B0EDC0A4A7B6812F833100E
S1130580084A7B68DB0013445B6808461946FFF79A
S113059007FF002301E04FF0FF3318460837BD463C
S11305A080BD00BFFC730000064880470649074A27
S11305B0074B9A42BEBF51F8040B42F8040BF8E70C
S11305C0FFF7BAFD55070000E07C000000000020A2
S11305D08C000020FEE700BF80B400AF044BDB6C4E
S11305E01B0EDBB21846BD465DF8047B704700BFA6
S11305F0B081E00F80B582B000AF00F01FF87860E2
S1130600074B5B6803F00F031A467B68D3407B609B
S1130610044A7B6813607B6818460837BD4680BD72
S113062000800C400800002080B400AF024B184644
S1130630BD465DF8047B7047006CDC0280B582B077
S113064000AF334BDB6A03F47053B3F5805F0AD019
S1130650B3F5005F03D0B3F5006F08D00BE02D4B6A
S11306601B687B6047E04FF400437B6043E02A4B08
S11306701B687B603FE0264BDB6803F4E063B3F563
S1130680007F1BD0B3F5007F05D8002B24D0B3F531
S1130690807F16D02BE0B3F5806F09D0B3F5A06F3F
S11306A003D0B3F5407F06D021E01C4B7B6021E0F2
S11306B01B4B7B601EE01B4B7B601BE01A4B7B607B
S11306C018E0FFF789FF0346122B02D9174B7B6012
S11306D010E0174B7B600DE0FFF77EFF0346122B03
S11306E002D9144B7B6005E0134B7B6002E00023CE
S11306F07B6000BF00BF064B1B6803F4E0339B0B19
S113070001337A68B2FBF3F318460837BD4680BD5F
S113071000800C400400002000000020003FAB01DA
S1130720406F4001809FD500C0D8A70040B5640049
S1130730C0CF6A00804F120040420F0080B400AF67
S1130740034B1B681846BD465DF8047B704700BF29
S11307500000002080B400AFBD465DF8047B704704
S113076080B400AF4FF400431846BD465DF8047BE7
S1130770704700BF80B400AF4FF47A731846BD468B
S11307805DF8047B704700BF80B400AF034B1B6867
S11307901846BD465DF8047B704700BF0400002086
S11307A080B483B000AF7860002318460C37BD4690
S11307B05DF8047B704700BF80B483B000AF7860FD
S11307C0FEE700BF80B483B000AF786039603B6857
S11307D04FF400525A60002318460C37BD465DF8AA
S11307E0047B704780B483B000AF7860012318465F
S11307F00C37BD465DF8047B704700BF80B485B0FC
S113080000AFF860B9607A60002318461437BD461B
S11308105DF8047B704700BF80B586B000AFF86018
S1130820B9607A6000237B6111E000F0B1F93861AE
S11308303B69B3F1FF3F09D0BB685A1CBA603A69FF
S1130840D2B21A707B6901337B6100E004E07B68FB
S11308505A1E7A60002BE8D17B69002B02DC4FF032
S1130860FF3300E07B6918461837BD4680BD00BFE2
S113087090B585B000AF7860184B1B68002B02D18F
S1130880164B174A1A60154B1B68FB60134B1A680A
S11308907B681344EFF3088214462246934212D92C
S11308A0104B1B689B68184605F0A4FD04460E48CF
S11308B006F023F8034620460B491A4600F016F8C2
S11308C0012005F083FD054B1A687B681344034A35
S11308D01360FB6818461437BD4690BDA80000207D
S11308E0702600207C0000200C74000080B586B0C7
S11308F000AFF860B9607A6000237B6109E0BB68EF
S11309005A1CBA601B78184600F080F97B690133E1
S11309107B617A697B689A42F1DB7B6818461837F9
S1130920BD4680BD80B483B000AF0346FB71084967
S113093097F907305B09FA7902F01F02012000FAE7
S113094002F241F823200C37BD465DF8047B704762
S113095000E100E080B483B000AF0346FB710949B5
S113096097F907305B09FA7902F01F02012000FAB7
S113097002F2603341F823200C37BD465DF8047B56
S1130980704700BF00E100E080B483B000AF0346CD
S11309903960FB7197F90730002B0BDA0D49FB79AD
S11309A003F00F03043B3A68D2B25201D2B20B44B3
S11309B01A7609E0084997F907303A68D2B2520129
S11309C0D2B20B4483F800230C37BD465DF8047B98
S11309D0704700BF00ED00E000E100E080B483B0A8
S11309E000AF786039607B683A689A640C37BD461A
S11309F05DF8047B704700BF80B483B000AF7860BB
S1130A0039607B68DA6C3B681A437B68DA640C37BC
S1130A10BD465DF8047B704780B582B000AF184BCB
S1130A201B6903F08003002B27D015480421FFF72E
S1130A30D5FF1420FFF78EFF114804F0E9FD0346AB
S1130A401A46104B1A700F4B1B780D48194604F0C8
S1130A50F3FD00237B600C4B1A683B1D10461946BE
S1130A6000F0E0FF7B68002B07D0084B4FF080526A
S1130A701A60BFF34F8FBFF36F8F0837BD4680BD39
S1130A8000E000405A2500206426002004ED00E028
S1130A9080B483B000AF78607B68002B03D0064B32
S1130AA001221A7002E0044B00221A700C37BD4672
S1130AB05DF8047B704700BFBC000020B0B588B06F
S1130AC000AF2C48012103F02BFA2B48012103F03D
S1130AD027FA042000210422012303F095FF0420B7
S1130AE001210122002303F08FFF244BFB61244BDF
S1130AF03C1D1D460FCD0FC495E8030084E8030098
S1130B00052007210422012303F07EFF1D48012153
S1130B1003F006FA00233B713B1DF869194604F003
S1130B20BBFCFB6940F203125A6514480421FFF729
S1130B3055FF1420FFF70EFF10480421FFF75CFF58
S1130B401420BF21FFF720FF1420FFF7EBFEF86904
S1130B50052104F065FC0C4B1B689B6818460021BA
S1130B600222002305F0F4FD084B01221A702037FD
S1130B70BD46B0BD4081040000D2040000E0004046
S1130B8028740000003204007C000020BD00002016
S1130B9080B582B000AF4FF0FF337B60174B1B78FA
S1130BA083F00103DBB2002B01D0FFF787FF03F0D2
S1130BB0C1FD3860124B1B68002B16DD114B1B68FE
S1130BC0114AD35CDBB27B600E4B1B6801330D4AC8
S1130BD013600C4B1B68082B02D10A4B00221A60CD
S1130BE0074B1B68013B064A1360386803F0B2FDEB
S1130BF07B6818460837BD4680BD00BFBD00002095
S1130C00B0000020AC000020B400002080B582B009
S1130C1000AF0346FB71144B1B7883F00103DBB276
S1130C20002B01D0FFF74AFF104B1B78002B06D096
S1130C30FB790A2B03D10E480D2104F0FDFCFB794E
S1130C400B48194604F0F8FC084B1B78002B06D01F
S1130C50FB790D2B03D106480A2104F0EDFCFB7946
S1130C6018460837BD4680BDBD000020BC000020EA
S1130C7000E0004080B483B000AF0346FB71094933
S1130C8097F907305B09FA7902F01F02012000FA94
S1130C9002F2603341F823200C37BD465DF8047B33
S1130CA0704700BF00E100E080B400AF034B5B6815
S1130CB01846BD465DF8047B704700BF000008403D
S1130CC080B58AB000AF002387F82730002387F867
S1130CD02630002387F82530002387F824300023AA
S1130CE087F823305D4A3B461188927819809A70C0
S1130CF00023FB610023BB6100237B6100233B6174
S1130D00574B1B6C03F01003002B06D155480121EF
S1130D1003F006F9012387F82630534803F060FAFC
S1130D200346FB73FB7B032B02D0012387F824309B
S1130D304B4BDB6A03F04003002B02D1012387F8FD
S1130D4023304948032103F0FFFA484802F0BCFE6F
S1130D50B86046484FF4807102F080FF404B9B6DB1
S1130D6003F00203002B06D14048012103F0D8F818
S1130D70012387F8253003F0DDFC78603C4B1B68C9
S1130D8003F00103002B1AD0394B1B68FB61384B6D
S1130D909B68BB61364BDB687B61354BDB693B6130
S1130DA0334B00221A60324B0022DA61304B0722A7
S1130DB09A611E20FFF75EFF012387F82730002386
S1130DC0BB703B46184604F06BFA00F053F87868A1
S1130DD003F0C0FC97F82730002B16D02348B968DD
S1130DE002F03CFF012004F045FA214ABB699360FC
S1130DF01F4A7B69D3601E4AFB6913601C4A3B6926
S1130E00D361002004F036FA02E0002004F022FA54
S1130E1097F82530002B03D01448002103F080F804
S1130E2097F82430002B04D0FB7B0F48194603F0BD
S1130E308BFA97F82330002B04D0012000210022E4
S1130E4003F014FC97F82630002B03D0054800214A
S1130E5003F066F82837BD4680BD00BF407400002B
S1130E6000800C400043020002001A0060161000CB
S1130E700000084080B584B000AF0823BB60324B4B
S1130E804FF480521A601BE000F060F8786000BFF5
S1130E9000F05CF802467B689A42F9D000F056F8FC
S1130EA07860294B1B68184600F058F800F04EF89B
S1130EB002467B68D31A7B607B68002B00D006E077
S1130EC0214B1B685B00204A1360002BDCD11E4BB6
S1130ED01B685B081C4A13601B4B1B68FB6024E007
S1130EE0194B1A68FB681343174A136000F02EF875
S1130EF0786000BF00F02AF802467B689A42F9D075
S1130F0000F024F87860104B1B68184600F026F8AF
S1130F1000F01CF802467B689A4206D0FB68DA436C
S1130F20094B1B681340084A1360BB685A1EBA6019
S1130F30002B05D0FB685B08FB60FB68002BCFD15E
S1130F401037BD4680BD00BF0C00002080B500AF47
S1130F50FFF7AAFE0346184680BD00BF80B483B0E5
S1130F6000AF78607B68013BFDD80C37BD465DF867
S1130F70047B704780B588B000AF786000237B6144
S1130F8001F08AFA3E4B1B68002B04D100F0B8F83C
S1130F903B4B01221A607B68002B0ED008231A46B3
S1130FA07B6813447B607B6803F00703002B04D049
S1130FB07B6823F0070308337B607B68002B57D0E2
S1130FC07B6842F21F32934252D82E4BBB612D4BA9
S1130FD01B68FB6104E0FB69BB61FB691B68FB6187
S1130FE0FB695A687B689A4203D2FB691B68002B31
S1130FF0F1D1FB69244A93423AD0BB691B680822A9
S113100013447B61FB691A68BB691A60FB695A68FF
S11310107B68D31A08225200934222D9FA697B686A
S11310201344FB60FB695A687B68D21AFB685A60F8
S1131030FB697A685A60FB685B68BB60114B3B6173
S113104002E03B691B683B613B691B685A68BB68EB
S11310509A42F6D33B691A68FB681A603B69FA68DE
S11310601A600A4B1A68FB695B68D31A074A136053
S113107001F020FA7B6918462037BD4680BD00BFC9
S1131080F8230020E8230020F02300201000002093
S113109080B586B000AF78607B683B617B68002BCD
S11310A027D008235B423A6913443B613B69FB60E8
S11310B001F0F2F9FB685B68BB600F4B7B6102E0F7
S11310C07B691B687B617B691B685A68BB689A42B1
S11310D0F6D37B691A68FB681A607B69FA681A6040
S11310E0FB685A68054B1B681344044A136001F0FB
S11310F0E1F91837BD4680BDE82300201000002028
S113110080B483B000AF0F4B23F007037B600E4A1B
S11311107B6813600C4B00225A600C4B42F2203265
S11311205A600A4B00221A607B683B603B6842F2BB
S113113020325A603B68054A1A600C37BD465DF898
S1131140047B7047C8000020E8230020F02300201F
S113115080B483B000AF78607B6803F108027B68D9
S11311605A607B684FF0FF329A607B6803F1080293
S11311707B68DA607B6803F108027B681A617B682C
S113118000221A600C37BD465DF8047B704700BF2F
S113119080B483B000AF78607B6800221A610C379A
S11311A0BD465DF8047B704780B485B000AF7860BD
S11311B039607B685B68FB603B68FA685A60FB686F
S11311C09A683B689A60FB689B683A685A60FB6857
S11311D03A689A603B687A681A617B681B685A1C93
S11311E07B681A601437BD465DF8047B704700BF06
S11311F080B485B000AF786039603B681B68BB6021
S1131200BB68B3F1FF3F03D17B681B69FB600CE053
S11312107B680833FB6002E0FB685B68FB60FB688B
S11312205B681A68BB689A42F6D9FB685A683B68DF
S11312305A603B685B683A689A603B68FA689A60EF
S1131240FB683A685A603B687A681A617B681B6875
S11312505A1C7B681A601437BD465DF8047B7047DE
S113126080B485B000AF78607B681B69FB607B68E5
S11312705B687A6892689A607B689B687A6852684F
S11312805A60FB685A687B689A4203D17B689A6803
S1131290FB685A607B6800221A61FB681B685A1E4F
S11312A0FB681A60FB681B6818461437BD465DF876
S11312B0047B704780B485B000AFF860B9607A6091
S11312C0FB68043BFB60FB684FF080721A60FB68AC
S11312D0043BFB60BB6823F00102FB681A60FB68F7
S11312E0043BFB60094AFB681A60FB68143BFB6023
S11312F07A68FB681A60FB68203BFB60FB68184651
S11313001437BD465DF8047B704700BF111300001D
S113131080B582B000AF094B1B68B3F1FF3F03D027
S11313200748F22102F014F94FF0BF0383F3118848
S1131330BFF36F8FBFF34F8F7B60FEE71400002075
S113134044740000000000000000000000000000E1
S1131350074B19680868B0E8F00F80F30988BFF3F9
S11313606F8F4FF0000080F311884EF00D0E704720
S11313700424002006480068006880F3088862B6E8
S113138061B6BFF34F8FBFF36F8F00DF00BF000064
S113139008ED00E080B584B000AF284BFB60FB682B
S11313A01B78DBB2BB60FB68FF221A70FB681B78FA
S11313B0DBB2FB71FB79DBB223F04003DAB2204BE2
S11313C01A70204B07221A6009E01E4B1B68013B70
S11313D01C4A1360FB79DBB25B00DBB2FB71FB7967
S11313E0DBB2DBB25BB2002BEFDB164B1B681B02DC
S11313F0144A1360134B1B6803F4E063114A13602F
S1131400BB68DAB2FB681A700F4A0F4B1B6843F4CF
S11314107F0313600C4A0C4B1B6843F07F4313603B
S113142000F0A8F8094B00221A60FFF7A3FFFFF7AA
S11314306FFF002318461037BD4680BD00E400E06E
S1131440FC2300200024002020ED00E014000020F4
S113145080B582B000AF4FF0BF0383F31188BFF3B0
S11314606F8FBFF34F8F7B600A4B1B680133094AB0
S11314701360084B1B68012B09D1074B1B68DBB2B7
S1131480002B04D0054840F27F1102F061F80837C0
S1131490BD4680BD1400002004ED00E0447400004B
S11314A080B582B000AF0D4B1B68002B04D10C48F3
S11314B04FF4C37102F04CF8084B1B68013B074A18
S11314C01360064B1B68002B04D100237B607B68F0
S11314D083F311880837BD4680BD00BF1400002087
S11314E04474000000000000000000000000000040
S11314F0EFF30980BFF36F8F0D4B1A6820E9F00FEB
S113150010602DE908404FF0BF0080F3118801F00E
S113151037F94FF0000080F31188BDE808401968DE
S11315200868B0E8F00F80F30988BFF36F8F704745
S11315300424002080B582B000AF4FF0BF0383F3D2
S11315401188BFF36F8FBFF34F8F7B6001F05CF89E
S11315500346002B03D0064B4FF080521A60002341
S11315603B603B6883F311880837BD4680BD00BFEC
S113157004ED00E080B400AF054B43F2AF621A60A3
S1131580044B07221A60BD465DF8047B704700BF18
S113159014E000E010E000E080B582B000AFEFF3AB
S11315A005837B607B680F2B0ED90F4A7B6813443D
S11315B01B78FB700D4B1B78FA789A4204D20C48C6
S11315C040F29E2101F0C4FF0A4B1B6803F4E06261
S11315D0094B1B689A4204D9054840F2AE2101F038
S11315E0B7FF0837BD4680BDF0E300E0FC230020D0
S11315F0447400000CED00E00024002080B584B0A9
S113160000AF786039607B68FB60FB68002B04D115
S11316102A4840F21B1101F09BFFFFF719FFFB68FA
S11316201A68FB68DB6BF968096C01FB03F31A4465
S1131630FB685A60FB6800229A63FB681A68FB68BF
S11316409A60FB681A68FB68DB6B013BF968096CFC
S113165001FB03F31A44FB68DA60FB68FF2283F89A
S11316604420FB68FF2283F845203B68002B14D1FB
S1131670FB681B69002B1AD0FB681033184601F075
S113168019F90346002B12D00D4B4FF080521A600B
S1131690BFF34F8FBFF36F8F09E0FB681033184619
S11316A0FFF756FDFB6824331846FFF751FDFFF79B
S11316B0F7FE012318461037BD4680BD6474000050
S11316C004ED00E090B58BB002AFF860B96013464A
S11316D0FB71FB68002B04D114484FF4C47101F072
S11316E037FFBB68002B02D10023FB6104E0FB68D9
S11316F0BA6802FB03F3FB61FB6948331846FFF742
S113170039FCB861BB69002B0BD0BB6948337B61E2
S1131710FC79BB690093F868B9687A69234600F0DC
S113172007F8BB6918462437BD4690BD64740000B1
S113173080B584B000AFF860B9607A60FB70BB68B4
S1131740002B03D1BB69BA691A6002E0BB697A68ED
S11317501A60BB69FA68DA63BB69BA681A64B86963
S11317600121FFF74BFF1037BD4680BD80B58AB01D
S113177000AFF860B9607A603B6000237B62FB686D
S11317803B623B6A002B04D1654840F2D92101F049
S1131790DFFEBB68002B08D13B6A1B6C002B04D016
S11317A05F4840F2DA2101F0D3FE3B68022B08D1F6
S11317B03B6ADB6B012B04D0594840F2DB2101F07A
S11317C0C7FE01F00BFA0346002B07D17B68002B00
S11317D004D0534840F2DE2101F0BAFEFFF738FE90
S11317E03B6A9A6B3B6ADB6B9A4202D33B68022BDF
S11317F029D1386AB9683A6800F088FAF8613B6A16
S11318005B6A002B10D03B6A2433184601F052F86F
S11318100346002B13D0434B4FF080521A60BFF3A2
S11318204F8FBFF36F8F0AE0FB69002B07D03D4B4E
S11318304FF080521A60BFF34F8FBFF36F8FFFF7E3
S11318402FFE012367E07B68002B03D1FFF728FEFE
S1131850002360E07B6A002B06D107F114031846CD
S113186001F088F801237B62FFF71AFE00F014FEF2
S1131870FFF7EEFD3B6A93F84430DBB25BB2B3F1A1
S1131880FF3F03D13B6A002283F844203B6A93F86C
S11318904530DBB25BB2B3F1FF3F03D13B6A0022B8
S11318A083F84520FFF7FCFD07F114023B1D1046A9
S11318B0194601F07DF80346002B24D1386A00F064
S11318C01FFB0346002B18D03B6A03F110027B6810
S11318D01046194600F0A8FF386A00F0A9FA00F093
S11318E0E9FD0346002B15D10E4B4FF080521A60D0
S11318F0BFF34F8FBFF36F8F0CE0386A00F098FA94
S113190000F0D8FD6AE7386A00F092FA00F0D2FDE0
S1131910002300E062E718462837BD4680BD00BFBB
S11319206474000004ED00E080B58CB000AFF86092
S1131930B9607A603B60FB68BB62BB6A002B04D170
S1131940374840F29F3101F003FEBB68002B08D1F9
S1131950BB6A1B6C002B04D031484FF4687101F052
S1131960F7FD3B68022B08D1BB6ADB6B012B04D06B
S11319702B4840F2A13101F0EBFDFFF70DFEEFF330
S113198011824FF0BF0383F31188BFF36F8FBFF34E
S11319904F8FFA61BB61FB697B62BB6A9A6BBB6A5E
S11319A0DB6B9A4202D33B68022B2CD1BB6A93F8BF
S11319B0453087F82330B86AB9683A6800F0A6F968
S11319C097F92330B3F1FF3F12D1BB6A5B6A002B56
S11319D016D0BB6A2433184600F06CFF0346002B74
S11319E00ED07B68002B0BD07B6801221A6007E0C5
S11319F097F823300133DBB2DAB2BB6A83F84520AF
S1131A000123FB6201E00023FB627B6A7B617B694B
S1131A1083F31188FB6A18463037BD4680BD00BF8A
S1131A206474000080B58AB000AF786039607B6868
S1131A303B623B6A002B04D1344840F23C4101F044
S1131A4087FD3B6A1B6C002B04D030484FF488613F
S1131A5001F07EFD3B6A1B68002B08D13B6A5B6882
S1131A60002B04D0294840F2454101F071FDFFF7F5
S1131A7093FDEFF311824FF0BF0383F31188BFF39B
S1131A806F8FBFF34F8F3A61FB603B69FB613B6A29
S1131A909B6BBB613B6ADA6BBB699A4229D93B6A8F
S1131AA093F84530FB75BB695A1C3B6A9A6397F9F6
S1131AB01730B3F1FF3F12D13B6A5B6A002B15D09C
S1131AC03B6A2433184600F0F5FE0346002B0DD084
S1131AD03B68002B0AD03B6801221A6006E0FB7DBC
S1131AE00133DBB2DAB23B6A83F8452001237B621F
S1131AF001E000237B62FB69BB60BB6883F3118850
S1131B007B6A18462837BD4680BD00BF6474000058
S1131B1080B58AB000AFF860B9607A603B6000239A
S1131B207B62FB683B623B6A002B04D1754840F240
S1131B30DC4101F00DFDBB68002B08D13B6A1B6C36
S1131B40002B04D06F4840F2DD4101F001FD01F0AB
S1131B5045F80346002B07D17B68002B04D0694865
S1131B604FF49C6101F0F4FCFFF772FC3B6A9B6B41
S1131B70FB61FB69002B46D03B6ADB68BB61386ABA
S1131B80B96800F02FF93B68002B21D1FB695A1E7C
S1131B903B6A9A633B6A1B68002B04D101F032F95B
S1131BA002463B6A5A603B6A1B69002B27D03B6A9A
S1131BB01033184600F07EFE0346002B1FD0524B14
S1131BC04FF080521A60BFF34F8FBFF36F8F16E050
S1131BD03B6ABA69DA603B6A5B6A002B0FD03B6AE6
S1131BE02433184600F066FE0346002B07D0464B0C
S1131BF04FF080521A60BFF34F8FBFF36F8FFFF720
S1131C004FFC01237AE07B68002B03D1FFF748FCEB
S1131C10002373E07B6A002B06D107F110031846FA
S1131C2000F0A8FE01237B62FFF73AFC00F034FCCD
S1131C30FFF70EFC3B6A93F84430DBB25BB2B3F1BE
S1131C40FF3F03D13B6A002283F844203B6A93F8A8
S1131C504530DBB25BB2B3F1FF3F03D13B6A0022F4
S1131C6083F84520FFF71CFC07F110023B1D1046CA
S1131C70194600F09DFE0346002B31D1386A00F06E
S1131C8029F90346002B25D03B6A1B68002B08D199
S1131C90FFF7DEFB3B6A5B68184600F0BDFFFFF709
S1131CA0FFFB3B6A03F124027B681046194600F0EF
S1131CB0BBFD386A00F0BCF800F0FCFB0346002BC7
S1131CC01BD1114B4FF080521A60BFF34F8FBFF3FB
S1131CD06F8F12E0386A00F0ABF800F0EBFB43E7DB
S1131CE0386A00F0A5F800F0E5FB386A00F0F2F875
S1131CF00346002B01D0002300E035E718462837BF
S1131D00BD4680BD6474000004ED00E080B586B07B
S1131D1000AFF860B9607A6000237B61FB689B6B5D
S1131D203B61FB681B6C002B0DD1FB681B68002B0F
S1131D304FD1FB685B68184600F0E6FF7861FB68EA
S1131D4000225A6045E07B68002B1AD1FB689A6830
S1131D50FB681B6C1046B9681A4604F067FCFB6804
S1131D609A68FB681B6C1A44FB689A60FB689A6863
S1131D70FB685B689A422CD3FB681A68FB689A601C
S1131D8027E0FB68DA68FB681B6C1046B9681A46E2
S1131D9004F04CFCFB68DA68FB681B6C5B421A4479
S1131DA0FB68DA60FB68DA68FB681B689A4207D252
S1131DB0FB685A68FB681B6C5B421A44FB68DA6078
S1131DC07B68022B05D13B69002B02D03B69013BA8
S1131DD03B613B695A1CFB689A637B691846183758
S1131DE0BD4680BD80B582B000AF786039607B6845
S1131DF01B6C002B19D07B68DA687B681B6C1A4457
S1131E007B68DA607B68DA687B685B689A4203D334
S1131E107B681A687B68DA607B68DA687B681B6CAD
S1131E20386811461A4604F001FC0837BD4680BDE7
S1131E3080B584B000AF7860FFF70AFB7B6893F845
S1131E404530FB7313E07B685B6A002B0AD07B6828
S1131E502433184600F02EFD0346002B03D000F077
S1131E60FDFD00E007E0FB7B013BDBB2FB7397F970
S1131E700F30002BE7DC7B68FF2283F84520FFF757
S1131E800FFBFFF7E5FA7B6893F84430BB7313E06C
S1131E907B681B69002B0ED07B681033184600F05A
S1131EA009FD0346002B01D000F0D8FDBB7B013BAC
S1131EB0DBB2BB7300E003E097F90E30002BE7DCE4
S1131EC07B68FF2283F84420FFF7EAFA1037BD4607
S1131ED080BD00BF80B584B000AF7860FFF7B8FA6A
S1131EE07B689B6B002B02D10123FB6001E0002384
S1131EF0FB60FFF7D5FAFB6818461037BD4680BD76
S1131F0080B584B000AF7860FFF7A2FA7B689A6B63
S1131F107B68DB6B9A4202D10123FB6001E0002362
S1131F20FB60FFF7BDFAFB6818461037BD4680BD5D
S1131F3080B485B000AF786039600023FB6014E0A2
S1131F400E4AFB6852F83330002B0BD10B49FB6867
S1131F503A6841F83320094AFB68DB0013447A6885
S1131F605A6005E0FB680133FB60FB68092BE7D985
S1131F701437BD465DF8047B704700BF7025002010
S1131F8080B586B000AFF860B9607A60FB687B61A9
S1131F90FFF75EFA7B6993F84430DBB25BB2B3F1CE
S1131FA0FF3F03D17B69002283F844207B6993F8C7
S1131FB04530DBB25BB2B3F1FF3F03D17B69002252
S1131FC083F84520FFF76CFA7B699B6B002B06D1E5
S1131FD07B6924331846B9687A6800F045FC78694F
S1131FE0FFF726FF1837BD4680BD00BF80B58CB013
S1131FF004AFF860B9603B601346FB80FB889B002C
S11320001846FEF7B7FF78617B69002B0ED050208D
S1132010FEF7B0FFF861FB69002B03D0FB697A6916
S11320201A6305E07869FFF733F801E00023FB61E8
S1132030FB69002B13D0FA88BB6A0093FB6A0193F7
S1132040FB69029300230393F868B9683B6800F0C6
S11320500FF8F86900F086F80123BB6102E04FF045
S1132060FF33BB61BB6918462037BD4680BD00BF46
S113207080B586B000AFF860B9607A603B60BB6A37
S11320801A6B7B6803F18043013B9B0013443B6163
S11320903B6923F007033B613B6903F00703002B13
S11320A004D02F4840F22B3101F052FA00237B6117
S11320B013E0BA687B6913441978BA6A7B691344DC
S11320C030330A461A71BA687B6913441B78002BB3
S11320D000D105E07B6901337B617B69092BE8D979
S11320E0BB6A002283F83D203B6A052B01D90523F6
S11320F03B62BB6A3A6ADA62BB6A3A6A1A64BB6ACE
S113210000225A64BB6A04331846FFF741F8BB6ADD
S113211018331846FFF73CF8BB6ABA6A1A613B6A7F
S1132120C3F10602BB6A9A61BB6ABA6A5A62BB6AA5
S113213000229A64BB6A002283F84C203869F9684B
S11321403A68FFF7B7F80246BB6A1A607B6A002B4D
S113215002D07B6ABA6A1A601837BD4680BD00BFD8
S11321608074000080B582B000AF7860FFF770F92A
S11321702B4B1B6801332A4A13602A4B1B68002B24
S113218009D1284A7B681360254B1B68012B10D1A9
S113219000F078FC0DE0244B1B68002B09D1214B87
S11321A01B68DA6A7B68DB6A9A4202D81D4A7B683C
S11321B013601E4B1B6801331C4A13607B68DB6A87
S11321C01A46012303FA02F2194B1B681343184AF7
S11321D013607B68DA6A13469B0013449B00154A1C
S11321E01A447B68043310461946FEF7DDFFFFF7F7
S11321F057F90D4B1B68002B0ED00A4B1B68DA6A8B
S11322007B68DB6A9A4207D20B4B4FF080521A600C
S1132210BFF34F8FBFF36F8F0837BD4680BD00BF3C
S1132220F024002004240020FC2400200C2500209D
S1132230F82400200824002004ED00E080B586B0D6
S113224000AF78607B683B613B69002B04D1204878
S113225040F2FB4101F07CF91E4B1B683A699A423B
S113226002D10023FB752DE0FFF7F2F83B695B69AF
S1132270FB60FFF715F9184B1B68FA689A4204D003
S1132280164B1B68FA689A4202D10223FB7519E0C7
S1132290FB68134A934209D13B699B6A002B02D124
S11322A00323FB750EE00223FB750BE0FB680D4A6C
S11322B0934202D0FB68002B02D10423FB7501E09A
S11322C00123FB75FB7D18461837BD4680BD00BF52
S11322D08074000004240020A8240020AC240020E2
S11322E0DC240020C424002080B584B000AF7860D2
S11322F00023FB607B68BB607B68002B04D1124821
S113230040F2816101F024F9BB685B690F4A934292
S113231001D1012300E00023002B0FD0BB689B6A8E
S11323200B4A93420AD0BB689B6A002B01D101235C
S113233000E00023002B01D00123FB60FB6818465A
S11323401037BD4680BD00BF80740000DC2400202F
S1132350B024002080B584B000AF78607B68FB6057
S11323607B68002B04D1234840F2AB6101F0F0F804
S1132370FB68002B3BD0204B1B68FA689A4236D08E
S1132380FFF766F8F868FFF7AFFF0346002B2CD081
S1132390FB6804331846FEF763FFFB68DB6A1A46E2
S11323A0012303FA02F2154B1B681343134A13600B
S11323B0FB68DA6A13469B0013449B00104A1A44D4
S11323C0FB68043310461946FEF7EEFEFB68DA6A32
S11323D0094B1B68DB6A9A4207D30A4B4FF08052C1
S11323E01A60BFF34F8FBFF36F8FFFF759F81037A1
S11323F0BD4680BD8074000004240020F824002021
S11324000824002004ED00E080B584B002AF00236E
S113241000931A4B01931A481A498C220023FFF7A0
S1132420E5FD78607B68012B02D100F063FD7860E4
S11324307B68012B15D14FF0BF0383F31188BFF3E1
S11324406F8FBFF34F8F3B600F4B4FF0FF321A601B
S11324500E4B01221A600E4B00221A60FEF79AFFFF
S113246008E07B68B3F1FF3F04D10A4840F284716D
S113247001F06EF80837BD4680BD00BF142500206A
S1132480752A00009C74000010250020FC24002004
S1132490F42400208074000080B400AF044B1B6857
S11324A00133034A1360BD465DF8047B704700BFE7
S11324B01825002080B584B000AF0023FB60002302
S11324C0BB603F4B1B68002B04D13E484FF4FD61B9
S11324D001F03EF8FEF7BCFF394B1B68013B384A5C
S11324E01360374B1B68002B63D1374B1B68002BE1
S11324F05FD030E0354BDB68DB68FB60FB6818338A
S11325001846FEF7ADFEFB6804331846FEF7A8FE36
S1132510FB68DB6A1A46012303FA02F22C4B1B68A0
S113252013432B4A1360FB68DA6A13469B00134477
S11325309B00284A1A44FB68043310461946FEF7E8
S113254033FEFB68DA6A244B1B68DB6A9A4202D3C7
S1132550224B01221A601D4B1B68002BCAD1FB6859
S1132560002B01D000F016FB1D4B1B687B607B68C1
S1132570002B10D000F048F80346002B02D0174B74
S113258001221A607B68013B7B607B68002BF1D1E0
S1132590134B00221A60114B1B68002B09D0012336
S11325A0BB60104B4FF080521A60BFF34F8FBFF3E4
S11325B06F8FFEF775FFBB6818461037BD4680BDA8
S11325C01825002080740000F0240020B02400208E
S11325D0F8240020082400200424002004250020DE
S11325E00025002004ED00E080B483B000AF054B6B
S11325F01B687B607B6818460C37BD465DF8047B1E
S1132600704700BFF424002080B586B000AF0023DB
S11326107B614F4B1B68002B40F089804D4B1B683E
S113262001333B614B4A3B6913603B69002B1AD170
S1132630494B1B681B68002B04D0484840F6D9114D
S113264000F086FF444B1B68FB60454B1B68424A05
S11326501360434AFB681360424B1B680133414AD1
S1132660136000F097FA404B1B683A699A424FD3C3
S1132670394B1B681B68002B01D1012300E00023A8
S1132680002B04D0384B4FF0FF321A6040E0324B3D
S11326901B68DB68DB68BB60BB685B687B603A69AE
S11326A07B689A4203D2304A7B68136030E0BB688F
S11326B004331846FEF7D4FDBB689B6A002B04D094
S11326C0BB6818331846FEF7CBFDBB68DB6A1A46B5
S11326D0012303FA02F2254B1B681343234A1360B8
S11326E0BB68DA6A13469B0013449B00204A1A44D1
S11326F0BB68043310461946FEF756FDBB68DA6A18
S11327001C4B1B68DB6A9A4201D301237B61AFE750
S1132710184B1B68DA6A164913469B0013449B0046
S11327200B441B68012B01D901237B6104E0124B8C
S11327301B680133104A1360104B1B68002B01D037
S113274001237B617B6918461837BD4680BD00BFF5
S113275018250020F4240020A82400208074000000
S1132760AC2400200825002010250020F824002097
S11327700824002004240020002500200425002033
S113278080B584B000AF224B1B68002B03D0214BD3
S113279001221A6039E01F4B00221A601E4B1B688D
S11327A07B607B68B3FA83F3FB70FB78C3F11F0390
S11327B0FB601A49FA6813469B0013449B000B44C0
S11327C01B68002B04D1164840F6F62100F0C0FE29
S11327D0FA6813469B0013449B00104A1344BB60E1
S11327E0BB685B685A68BB685A60BB685A68BB6858
S11327F008339A4204D1BB685B685A68BB685A6064
S1132800BB685B68DB68074A13601037BD4680BD50
S11328101825002004250020F82400200824002086
S1132820807400000424002080B582B000AF78607A
S113283039607B68002B04D1094840F6063100F06A
S113284087FE084B1B68183378681946FEF7D0FCDE
S11328503868012100F0EAFA0837BD4680BD00BFA0
S1132860807400000424002080B584B000AFF860B8
S1132870B9607A60FB68002B04D10C4840F6313112
S113288000F066FE0A4B1B681833F8681946FEF719
S11328908BFC7B68002B02D04FF0FF33BB60B86821
S11328A0796800F0C3FA1037BD4680BD807400001B
S11328B00424002080B584B000AF78607B68DB68B6
S11328C0DB68BB60BB68002B04D1234840F6613150
S11328D000F03EFEBB6818331846FEF7C1FC1F4BE0
S11328E01B68002B1ED1BB6804331846FEF7B8FCE6
S11328F0BB68DB6A1A46012303FA02F2184B1B6811
S11329001343174A1360BB68DA6A13469B001344E7
S11329109B00144A1A44BB68043310461946FEF758
S113292043FC05E0BB6818330F481946FEF73CFC2E
S1132930BB68DA6A0D4B1B68DB6A9A4205D901232E
S1132940FB600B4B01221A6001E00023FB60FB6873
S113295018461037BD4680BD80740000182500203D
S1132960F824002008240020B0240020042400209F
S11329700425002080B582B000AF78607B68002B0E
S113298004D1084840F6C13100F0E2FD064B1A6854
S11329907B681A60054B1A687B685A600837BD4625
S11329A080BD00BF8074000008250020F4240020AE
S11329B080B584B000AF786039607B68002B04D1A7
S11329C0234840F6CB3100F0C3FD3B68002B04D113
S11329D01F4840F6CC3100F0BBFDFEF739FD1D4B1E
S11329E01B68BB603B681B68B3F1FF3F02D1002347
S11329F0FB6026E07B681A68174B1B689A4207D075
S1132A007B685A68BB689A4202D80123FB6018E0CD
S1132A107B685B68BA68D21A3B681B689A420ED21C
S1132A203B681A687B685968BB68CB1A1A443B68D0
S1132A301A607868FFF79EFF0023FB6001E0012322
S1132A40FB60FEF72DFDFB6818461037BD4680BDC0
S1132A5080740000F42400200825002080B400AF16
S1132A60034B01221A60BD465DF8047B704700BF2A
S1132A700425002080B582B000AF786000F040F8F3
S1132A80FCE700BF80B582B000AF00237B600CE0A0
S1132A907A6813469B0013449B00114A134418465A
S1132AA0FEF756FB7B6801337B607B68052BEFD90F
S1132AB00C48FEF74DFB0C48FEF74AFB0B48FEF7AB
S1132AC047FB0B48FEF744FB0A48FEF741FB0A4B61
S1132AD0044A1A60094B044A1A600837BD4680BD8F
S1132AE0082400208024002094240020B024002006
S1132AF0C4240020DC240020A8240020AC240020CE
S1132B0080B582B000AF28E0FFF7C6FC164B1B6807
S1132B10002B0CBF01230023DBB27B60FFF7CAFC50
S1132B207B68002B19D1FEF793FC0F4BDB68DB6845
S1132B303B603B6804331846FEF792FB0B4B1B6863
S1132B40013B0A4A13600A4B1B68013B084A1360A5
S1132B50FEF7A6FC386800F00DF8054B1B68002B47
S1132B60D2D10837BD4680BDC4240020F024002003
S1132B70D824002080B582B000AF78607B681B6BDE
S1132B801846FEF785FA7868FEF782FA0837BD46DC
S1132B9080BD00BF80B483B000AF0E4B1B681B68C0
S1132BA0002B01D1012300E00023002B04D00A4BA9
S1132BB04FF0FF321A6008E0064B1B68DB68DB68E5
S1132BC07B607B685B68044A13600C37BD465DF824
S1132BD0047B7047A82400201025002080B483B013
S1132BE000AF0B4B1B68002B02D101237B6008E074
S1132BF0084B1B68002B02D102237B6001E00023F9
S1132C007B607B6818460C37BD465DF8047B7047D3
S1132C10FC2400201825002080B584B000AF786023
S1132C207B68FB607B68002B64D0FB68DA6A334BFB
S1132C301B68DB6A9A425DD2FB689B69002B06DB4A
S1132C402E4B1B68DB6AC3F10602FB689A61FB68C2
S1132C505969FB68DA6A13469B0013449B00284AAF
S1132C601344994201D1012300E00023002B3CD0FE
S1132C70FB6804331846FEF7F3FA0346002B15D11C
S1132C80FB68DA6A1E4913469B0013449B000B44FD
S1132C901B68002B0AD1FB68DB6A1A4601239340A8
S1132CA0DA43184B1B681340164A1360134B1B6816
S1132CB0DA6AFB68DA62FB68DB6A1A46012303FA04
S1132CC002F2104B1B6813430E4A1360FB68DA6A66
S1132CD013469B0013449B00094A1A44FB680433BF
S1132CE010461946FEF760FA04E0044B1B68DA6AE2
S1132CF0FB68DA621037BD4680BD00BF04240020A3
S1132D0008240020F824002080B584B000AF786047
S1132D107B68BB600023FB607B68002B64D0354B71
S1132D201B68BA689A4204D0334840F6C76100F081
S1132D300FFCBB685B6C002B04D12F4840F6C961C3
S1132D4000F006FCBB685B6C5A1EBB685A64BB6827
S1132D50DA6ABB681B6C9A4246D0BB685B6C002B7A
S1132D6042D1BB6804331846FEF77AFA0346002BB7
S1132D7015D1BB68DA6A214913469B0013449B00B2
S1132D800B441B68002B0AD1BB68DB6A1A4601237B
S1132D909340DA431A4B1B681340194A1360BB680B
S1132DA01A6CBB68DA62BB68DB6AC3F10602BB68F3
S1132DB09A61BB68DB6A1A46012303FA02F2104BDC
S1132DC01B6813430E4A1360BB68DA6A13469B0000
S1132DD013449B00094A1A44BB680433104619463D
S1132DE0FEF7E2F90123FB60FB6818461037BD4685
S1132DF080BD00BF0424002080740000082400204B
S1132E00F824002080B400AF074B1B68002B04D0CB
S1132E10054B1B685A6C01325A64034B1B681846F5
S1132E20BD465DF8047B70470424002080B584B05F
S1132E3000AF78603960284B1B68FB60274B1B6828
S1132E4004331846FEF70CFA0346002B0BD1234B30
S1132E501B68DB6A1A4601239340DA43204B1B6844
S1132E6013401F4A13607B68B3F1FF3F0AD13B68EC
S1132E70002B07D0194B1B6804331A481946FEF778
S1132E8093F926E0FA687B681344BB60134B1B6814
S1132E90BA685A60BA68FB689A4209D2124B1A6837
S1132EA00E4B1B68043310461946FEF7A1F910E0D7
S1132EB00E4B1A68094B1B68043310461946FEF77B
S1132EC097F90B4B1B68BA689A4202D2084ABB684E
S1132ED013601037BD4680BDF42400200424002074
S1132EE0F8240020DC240020AC240020A8240020A6
S1132EF01025002080B584B002AF00237B6000F071
S1132F00CFFA0E4B1B68002B0AD0052300930C4B01
S1132F1001930C480C498C220023FFF767F8786072
S1132F207B68002B04D1094840F2331100F010FBF8
S1132F307B6818460837BD4680BD00BF4C2500207D
S1132F405025002001310000A4740000AC7400007E
S1132F5080B588B002AFF860B9607A603B60282021
S1132F60FEF708F878617B69002B09D03B6A00936F
S1132F707B690193F868B9687A683B6800F006F8E1
S1132F807B6918461837BD4680BD00BF80B584B044
S1132F9000AFF860B9607A603B60BB68002B04D175
S1132FA010484FF4C67100F0D3FAFB69002B15D01A
S1132FB000F076FAFB69FA681A60FB69BA689A61EC
S1132FC0FB697A68DA61FB693A681A62FB69BA6973
S1132FD05A62FB6904331846FEF7DAF81037BD4627
S1132FE080BD00BFAC74000080B588B000AFF8604D
S1132FF0B9607A603B600023FB61FB68002B04D15D
S11330001F484FF4D37100F0A3FA1E4B1B68002B2A
S113301030D0BB683B617B687B61FB68BB61BB688C
S1133020052B1CDCFFF7DAFD0346022B0BD1154BF5
S11330301A6807F1100310461946BA6A0023FEF70E
S113304095FBF86116E00F4B1A6807F11003104660
S1133050194600220023FEF789FBF8610AE0094BB8
S11330601A6807F11003104619463A680023FEF760
S11330705BFCF861FB6918462037BD4680BD00BF84
S1133080AC7400004C25002080B586B002AF786097
S11330903960194B1B68DB68DB68FB60FB68043331
S11330A01846FEF7DDF8FB68DB69012B1DD1FB68D0
S11330B09A697B681344F86819463A687B6800F09B
S11330C0C3F80346002B10D000230093F8680021B6
S11330D07A680023FFF788FFB860BB68002B04D12F
S11330E006484FF4027100F033FAFB685B6AF86833
S11330F098471037BD4680BD44250020AC740000BD
S113310080B584B000AF786007F10803184600F07A
S113311057F8F860BB68F868194600F003F800F047
S1133120D5F8F1E780B584B000AF78603960FFF777
S1133130B3F907F10803184600F066F8F860BB68B5
S1133140002B31D13B68002B0AD17A68FB689A4284
S113315006D8FFF7AFF97868F968FFF795FF25E01F
S11331603B68002B08D0134B1B681B68002B0CBF5B
S113317001230023DBB23B600F4B19687A68FB68BC
S1133180D31A084619463A68FEF7FAFEFFF792F991
S11331900346002B0AD1094B4FF080521A60BFF34B
S11331A04F8FBFF36F8F01E0FFF784F91037BD46EF
S11331B080BD00BF482500204C25002004ED00E020
S11331C080B485B000AF78600E4B1B681B68002B81
S11331D00CBF01230023DBB21A467B681A607B68AC
S11331E01B68002B05D1074B1B68DB681B68FB6061
S11331F001E00023FB60FB6818461437BD465DF808
S1133200047B70474425002080B584B000AF78600B
S1133210FFF7EAF9F8600B4B1B68FA689A4205D28B
S113322000F0E2F87B6801221A6002E07B68002269
S11332301A60044AFB681360FB6818461037BD46E1
S113324080BD00BF5425002080B586B000AFF86073
S1133250B9607A603B6000237B61FB68BA685A609E
S1133260FB68FA681A61BA687B689A4212D87A686D
S11332703B68D21AFB689B699A4202D301237B61A3
S11332801BE0104B1A68FB68043310461946FDF71F
S1133290AFFF12E07A683B689A4206D2BA683B688C
S11332A09A4202D301237B6107E0074B1A68FB684B
S11332B0043310461946FDF79BFF7B6918461837FF
S11332C0BD4680BD482500204425002080B58AB035
S11332D002AF73E0BB68002B70DB3B69FB61FB69E9
S11332E05B69002B04D0FB6904331846FDF7B8FF73
S11332F03B1D1846FFF788FFB861BB68092B5CD8F3
S113330001A252F823F000BF313300003133000032
S113331031330000BD33000085330000B3330000B7
S11333203133000031330000BD3300008533000029
S1133330FA68FB699B691A44FB68F8691146BA6923
S1133340FFF782FF0346002B1BD0FB695B6AF86919
S11333509847FB69DB69012B13D1FA68FB699B6908
S11333601A4400230093F86900210023FFF73CFE70
S113337078617B69002B04D1194840F2213100F0B7
S1133380E7F81BE0FA68FB699A61FB699B69002B0B
S113339004D113484FF44E7100F0DAF8FB699A69CE
S11333A0BB691344F8691946BA69BB69FFF74CFF56
S11333B004E0F869FDF76CFE00E000BF094B1A68F1
S11333C007F108031046194600220023FEF7A0FB6C
S11333D00346002B7FF47EAF2037BD4680BD00BF7F
S11333E0AC7400004C25002080B588B002AF3FE0EB
S11333F0284B1B68DB681B687B61264B1B68DB68FA
S1133400DB683B613B6904331846FDF729FF3B69E0
S11334105B6A386998473B69DB69012B28D13B69B2
S11334209A697B691344FB60FA687B699A420ED9F6
S11334303B69FA685A603B693A691A61154B1A6824
S11334403B69043310461946FDF7D2FE10E0002311
S11334500093386900217A690023FFF7C5FDB8603D
S1133460BB68002B04D10C4840F2923100F070F894
S1133470084B1B681B68002BBAD1064B1B687B608A
S1133480064B1B68034A1360044A7B6813601837B1
S1133490BD4680BD44250020AC74000048250020B2
S11334A080B500AFFDF7D4FF124B1B68002B1DD174
S11334B01148FDF74DFE1148FDF74AFE104B0E4A28
S11334C01A60104B0D4A1A600A200C210022FEF7E4
S11334D0F9F80246074B1A60064B1B68002B05D00F
S11334E0044B1B6818460849FEF722FDFDF7D8FF78
S11334F080BD00BF4C2500201C2500203025002065
S11335004425002048250020CC74000080B584B0F8
S113351000AF78607B68FB607B68002B04D10B48AC
S113352040F2DA3100F014F8FDF792FFFB685B69B2
S1133530002B14BF01230023DBB2BB60FDF7B0FFF7
S1133540BB6818461037BD4680BD00BFAC74000090
S113355080B483B000AF78603960FEE780B487B090
S113356000AFF860B9607A60FB6803F10473DA00B5
S1133570BB6813449B007B617B697A681A601C37C3
S1133580BD465DF8047B704780B485B000AF7860B9
S113359039607B6803F10473DA003B6813449B00D1
S11335A0FB60FB681B6818461437BD465DF8047B56
S11335B0704700BF80B584B000AF78607B68002B93
S11335C003D07B68B3F5004F04D9084840F29661F4
S11335D0FFF7BEFF7B68B3FA83F3C3F11F03FB60FD
S11335E0FB6818461037BD4680BD00BFD474000088
S11335F080B483B000AF78607B68012202FA03F3E1
S113360018460C37BD465DF8047B704780B400AFA4
S1133610044BDB6C1B0EDBB21846BD465DF8047B25
S1133620704700BFB081E00F80B400AF054BDB6C86
S113363003F47F031B0CDBB21846BD465DF8047B24
S1133640704700BFB081E00F80B582B000AFFFF7D4
S1133650EBFF03464A2B04D0792B02D0482B21D010
S113366022E0164B1B699BB203F03F039BB21B0283
S1133670FB80124B9B6903F0F0039AB2FB8813435F
S1133680FB800E4BDB6903F0F0031B099AB2FB8845
S11336901343FB80FB88B3F5017F01D3084B09E09A
S11336A0084B07E0074B05E007484FF48771FFF725
S11336B04FFF002318460837BD4680BDD0FF0FE0FA
S11336C000366E010048E8012875000080B584B01A
S11336D000AF78600123FB60FFF7B6FF02467B680A
S11336E09A4204D30023FB600023BB600BE0FFF786
S11336F0ABFF03465A007B689A4202D30123BB60A6
S113370001E00223BB6008481E21FA68FFF726FF88
S11337100549054B5B6823F48072BB681B021343A5
S11337204B601037BD4680BD00800C4080B582B030
S113373000AF05481E21FFF727FF78607B68184615
S11337400837BD4680BD00BF00800C4080B582B004
S113375000AF244B5B6903F4E063B3F5007F1CD036
S1133760B3F5007F05D8002B25D0B3F5807F1FD09B
S11337702AE0B3F5C06F24D0B3F5E06F1ED0B3F5E3
S1133780407F21D1FFF742FF0346122B02D9164B8B
S11337907B6021E0154B7B601EE0FFF737FF03469B
S11337A0122B02D9124B7B6016E0124B7B6013E0A4
S11337B0114B7B6010E0114B7B600DE0104B7B6084
S11337C00AE0104B7B6007E00F484FF4C671FFF727
S11337D0BFFE00237B6000BF7B6818460837BD46E8
S11337E080BD00BF00800C40804F120040420F009B
S11337F040B56400C0CF6A00C0D8A700809FD50040
S1133800406F4001003FAB012875000080B582B0D5
S113381000AF0F4800F0E4FC0346FB70FB78072B75
S113382005D0092B07D1FCF709FF78600BE0FFF7FF
S11338308DFF786007E007484FF4E371FFF788FED7
S113384000237B6000BF7B6818460837BD4680BDF7
S113385006000C002875000080B485B000AF7860C5
S11338603960284BDB6B002B14BF01230023BB7290
S1133870244B41F67132DA63224B5B6803F0070391
S1133880FB60FB68012B01D9042B02D10023FB72DE
S113389002E00123FB7200BF7B681B4A934207D9F5
S11338A0FB7A002B01D0052300E00423FB6016E023
S11338B07B68154A93420BD87B68144A934207D914
S11338C0FB7A002B01D0032300E00123FB6006E018
S11338D0FB7A002B01D0022300E00023FB6009499E
S11338E0084B5B6823F00702FB6813434B60BB7A09
S11338F0002B02D0034B0022DA631437BD465DF877
S1133900047B704700000C400048E8010024F400E8
S113391080B500AFFCF788FE034618460021FFF788
S11339209BFF80BD80B582B000AF78603960786855
S11339303968FFF791FF0837BD4680BD90B585B063
S113394000AF78600023BB607B683B4A934208D099
S11339503A4A934205D03A4840F2B531FFF7F8FDB0
S113396000E000BF786800F03BFC0346FB607B6826
S1133970314A934203D0314A934206D00CE0314B92
S11339809B6A03F00303FB600CE02E4B9B6A03F07D
S11339900C039B08FB6005E029484FF47971FFF79D
S11339A0D7FD00BFFB68032B39D801A252F823F0DE
S11339B0E7390000C1390000C9390000D1390000DD
S11339C0FCF7CEFEB86032E0FCF7DEFEB8602EE015
S11339D0FCF710FE0446FFF7A9FE0346013324FA60
S11339E003F3BB6023E00023BB607B68124A93426D
S11339F003D07B68114A934210D1124B9A6A7B68B8
S1133A000D498B4201D1102300E0142322FA03F361
S1133A10002B03D0FCF7AEFEB86008E007E00848CE
S1133A2040F20E41FFF794FD0023BB6000BFBB686A
S1133A3018461437BD4690BD02001A0003001C004E
S1133A402875000000800C4080B483B000AF78601B
S1133A50094B5B6D03F00103002B00D006E000BFAF
S1133A60054B1A6D7B681340002BF9D10C37BD460A
S1133A705DF8047B704700BF00800C4080B582B0C5
S1133A8000AF104800F0ACFB0346FB70FB78032B3F
S1133A9007D0092B09D0022B0BD1FCF775FE7860F7
S1133AA00AE0FCF75DFE786006E0FCF7C7FD78608D
S1133AB002E000237B6000BF7B6818460837BD46E0
S1133AC080BD00BF0723220090B585B000AF7860A9
S1133AD07B681B0903F00F03BB60BB68013B062B2B
S1133AE000F29F8001A252F823F000BF093B0000BE
S1133AF0233C0000233C0000193B00002D3B000048
S1133B00413B0000D73B00004C4B1B6803F4E033FF
S1133B109B0B0133FB608CE0484B9B6803F00F0365
S1133B20FB60F868FFF764FDF86082E0434B5B6874
S1133B3003F00F03FB60F868FFF75AFDF86078E0C4
S1133B407B683F4A934218D03D4A934203D83D4A8A
S1133B50934207D036E03C4A934219D03B4A934201
S1133B6026D02FE0354B9B6E03F0F0031B09FB605E
S1133B70F868FFF73DFDF8602CE0304B9B6E03F4D2
S1133B8070631B0AFB60F868FFF732FDF86021E000
S1133B902A4B9B6E03F440531C0B1020FFF70AFDC5
S1133BA003462344FB60F868FFF722FDF86011E048
S1133BB0224B9B6E03F00303FB60F868FFF718FDCC
S1133BC0F86007E0224840F27261FFF7C1FC01236C
S1133BD0FB6000BF2DE07B681E4A934203D01E4A5F
S1133BE093420AD014E0154B1B6F03F00303FB60F0
S1133BF0F868FFF7FDFCF86012E0104B1B6F03F050
S1133C0030031B09FB60F868FFF7F2FCF86007E07B
S1133C100F4840F28B61FFF79BFC0123FB6000BF60
S1133C2007E00B4840F29261FFF792FC0123FB602E
S1133C3000BFFB6818461437BD4690BD00800C4099
S1133C4060261400601610006000260060062A003A
S1133C50287500007007160070171800B0B584B0FE
S1133C6000AF786039607B681B0903F00F03FB60C9
S1133C70FB68013B062B00F23A8101A252F823F0C3
S1133C809D3C0000EF3E0000EF3E0000DB3C0000E6
S1133C900D3D0000633D00006F3E00003B68002BBB
S1133CA002D03B68082B04D9954840F2BD61FFF768
S1133CB04FFCFFF72DFE9349924B1B6823F4E0322F
S1133CC03B68013B9B0313430B60FCF793FCB86018
S1133CD0B8680021FFF726FE0FE13B68002B03D0F4
S1133CE03B68B3F5007F04D985484FF4DA61FFF7E8
S1133CF02FFC3868FFF75EFC38608249814B9B6873
S1133D0023F00F023B6813438B60F6E03B68002B03
S1133D1003D03B68B3F5007F04D979484FF4DB61E5
S1133D20FFF716FCFFF7F4FDFCF788FC02463B683E
S1133D30B2FBF3F31846FFF7C9FC3868FFF73AFC07
S1133D40386070496F4B5B6823F00F023B68134384
S1133D504B60FCF74FFCB860B8680021FFF7E2FD48
S1133D60CBE07B68684A934227D0674A934203D8E2
S1133D70664A934207D073E0654A934237D0654A56
S1133D80934255D06CE03B68B3F5004F04D95C48CE
S1133D9040F2F361FFF7DCFB0420FFF755FE3868BF
S1133DA0FFF708FC38605749564B9B6E23F0F0022E
S1133DB03B681B0113438B6658E03B68B3F5004F27
S1133DC004D94F4840F20171FFF7C2FB0420FFF70A
S1133DD03BFE3868FFF7EEFB38604A49494B9B6E5F
S1133DE023F470623B681B0213438B663EE03B681E
S1133DF00F2B02D93B68802B04D941484FF4E26170
S1133E00FFF7A6FB0420FFF71FFE3868FFF7D2FB7D
S1133E1038603C4D3B4B9B6E23F440541020FFF71D
S1133E20C9FB02463B689B1A1B032343AB661DE098
S1133E303B68082B04D932484FF4E461FFF788FB50
S1133E400420FFF701FE3868FFF7B4FB38602D4902
S1133E502C4B9B6E23F003023B6813438B6605E0F7
S1133E60274840F22E71FFF773FB00BF45E07B68E3
S1133E70294A934203D0294A934218D030E03B6840
S1133E80082B04D91E4840F23771FFF761FB40202C
S1133E90FFF7DAFD3868FFF78DFB38601949194BD5
S1133EA01B6F23F003023B6813430B671EE03B6860
S1133EB0082B04D9124840F24671FFF749FB402011
S1133EC0FFF7C2FD3868FFF775FB38600D490D4BED
S1133ED01B6F23F030023B681B0113430B6705E0A3
S1133EE0074840F25471FFF733FB00BF05E0044874
S1133EF040F25A71FFF72CFB00BF1037BD46B0BD2E
S1133F002875000000800C40602614006016100024
S1133F106000260060062A0070071600701718005B
S1133F2080B586B000AF78600B46FB7000233B6120
S1133F307B681B0A03F00F03013B092B33D801A252
S1133F4052F823F0813F0000873F00006D3F0000DE
S1133F50A73F0000A73F00008D3F0000973F0000EF
S1133F60A73F0000A73F0000A13F00001B4B7B615F
S1133F701B4800F043F803461846FFF7A7FB18E078
S1133F80184B7B6115E0184B7B6112E0174B7B618A
S1133F9001233B610DE0164B7B6110233B6108E07C
S1133FA0144B7B6105E014484FF4FB61FFF7D0FA32
S1133FB010E07B681B0B03F01F03FB603B69002BC5
S1133FC002D03869FFF740FDFB787869F9681A4632
S1133FD0FFF7C4FA1837BD4680BD00BF40800C40CF
S1133FE00043020008800C4044800C4058800C4080
S1133FF060800C4078800C402875000090B585B036
S113400000AF78607B6803F47813B3F5B01F00F059
S1134010AB80B3F5B01F1AD8B3F5402F00F0BF80C2
S1134020B3F5402F08D8B3F5003F3CD0B3F5802F4B
S11340302DD0002B27D0BEE0B3F5801F3CD0B3F5C4
S1134040A01F47D0B3F5602F00F0AD80B3E0B3F507
S1134050081F00F0AC80B3F5081F0AD8B3F5D01FD1
S113406025D0B3F5E01F7AD0B3F5C01F00F08980E6
S1134070A1E0B3F5201F4ED0B3F5281F62D0B3F5ED
S1134080181F35D097E0FCF7D9FAF8609BE0FCF7ED
S1134090D5FAF8604E4B9B6803F00F031A46FB6891
S11340A0D340FB608FE0FCF7A5FAF8608BE0494849
S11340B0FFF744FCF86086E04648FFF73FFCF860F1
S11340C0434B9B6E03F0F0031B091A46FB68D34075
S11340D0FB6078E03F48FFF731FCF8603C4B9B6E97
S11340E003F470631B0A1A46FB68D340FB606AE062
S11340F03848FFF723FCF860354B9B6E03F44053BC
S11341001C0B1020FFF756FA034623441A46FB689B
S1134110D340FB6057E02F48FFF710FCF8602C4BAE
S11341209B6E03F440531B0B1A46FB68D340FB60A1
S1134130274BDB6F03F007030133FA68B2FBF3F399
S1134140FB6040E02348FFF7F9FBF860204B9B6ECF
S113415003F003031A46FB68D340FB6033E01E48B8
S1134160FFF7ECFBF8602EE01B48FFF7E7FBF86075
S1134170174B1B6F03F003031A46FB68D340FB6025
S113418021E01548FFF7DAFBF860114B1B6F03F0D1
S113419030031B091A46FB68D340FB6013E0FFF7AA
S11341A035FBF8600FE0FFF7D1FAF8600BE0FFF79A
S11341B065FCF86007E0094840F6CC01FFF7C8F950
S11341C00023FB6000BFFB6818461437BD4690BD52
S11341D000800C4002001A0003001C002875000037
S11341E080B584B000AF78600123FB737B6803F073
S11341F00F03BB60BB68013B062B00F2938001A256
S113420052F823F02142000057420000934200007C
S11342102543000025430000CF420000F142000086
S1134220474BDB6A03F47053B3F5805F09D0B3F5F1
S1134230005F03D0B3F5006F06D008E00223FB73E0
S113424008E00323FB7305E00423FB7302E005236A
S1134250FB7300BF6EE03A4B9B6A03F00303022B2F
S113426006D0032B07D0012B08D10323FB730FE0E7
S11342700223FB730CE00623FB7309E0304B9B6ABB
S113428003F48033002B02D00A23FB7300E000BF49
S113429050E02B4B9B6A03F00C03082B06D00C2B2D
S11342A007D0042B08D10323FB730FE00223FB7315
S11342B00CE00623FB7309E0214B9B6A03F4801393
S11342C0002B02D00A23FB7300E000BF32E01C4B3A
S11342D01B6803F08053002B03D0B3F1805F03D03D
S11342E028E00723FB7302E00923FB7300BF21E0EE
S11342F0134BDB6A03F46033B3F5803F08D0B3F5A6
S1134300003F08D0B3F5004F08D10923FB7308E040
S11343100223FB7305E00323FB7302E00123FB7319
S113432000BF07E007484FF44761FFF711F9002386
S1134330FB7300BFFB7B18461037BD4680BD00BF32
S113434000800C402875000080B588B000AF78600C
S11343500B46FB700323FB610323FB7600233B61C5
S11343607B6803F00F03FB60FB68013B062B00F244
S1134370438101A252F823F09543000083440000D6
S113438083440000F9450000F94500005145000050
S113439087450000FB78023B082B52D801A252F853
S11343A023F000BFC9430000D3430000DD430000F5
S11343B01F44000043440000434400004344000001
S11343C043440000374400000423FB610023FB76D0
S11343D03DE00323FB610123FB7638E00223FB610C
S11343E00223FB76FFF730F9034601331846FFF743
S11343F06DF9FCF7A3F90246844B9A4206D9844A24
S1134400834B1B6843F06003136020E0804A804BB9
S11344101B6823F0600343F02003136017E00123BB
S1134420FB610323FB76FFF70FF9034601331846BC
S1134430FFF74CF90BE0774840F61451FFF788F882
S1134440E0E0744840F61951FFF782F8DAE0FB7EA9
S113445018460121012200F009F9FFF759FA6C4AC4
S1134460FB6953626C48FFF7C9FD03461846FFF722
S11344702DF9FCF7BFF8B860B8680021FFF752FACD
S1134480C0E0FB78013B092B3CD801A252F823F091
S1134490B9440000BF440000CF44000005450000BB
S11344A005450000DF440000054500000545000007
S11344B005450000FB44000000237B6128E0002048
S11344C00121012200F0D2F802237B6120E00120C7
S11344D00121012200F0CAF801237B6118E0FCF7F6
S11344E089F8B860B868FFF7F1F84C480421012254
S11344F0FFF734F803237B610AE000237B61012387
S11345003B6105E0434840F6B851FFF721F879E0F4
S1134510FB68022B0DD13E493D4B9B6A23F480334B
S113452023F003037A691A433B691B0413438B6228
S113453068E03749364B9B6A23F4801323F00C035D
S11345407A6992001A433B691B0513438B6259E055
S1134550FB78072B02D0092B07D00DE02C4A2C4BFB
S11345601B6823F0805313600CE0294A284B1B6816
S113457043F08053136005E0264840F61361FEF7CC
S1134580E7FF3FE03EE0FB78032B13D0092B21D05B
S1134590022B2AD100200121012200F067F81C4BD4
S11345A040225A6200BF1A4BDB6A03F48033002BAB
S11345B0F9D020E001200121012200F057F8144B2A
S11345C060225A6200BF124BDB6A03F40033002BF3
S11345D0F9D010E00E4B20225A6200BF0C4BDB6A6C
S11345E003F40043002BF9D005E00A4840F6526179
S11345F0FEF7AEFF06E005E0064840F62771FEF739
S1134600A7FF00BF2037BD4680BD00BF0048E801BA
S113461000800C40287500000043020040800C40DC
S113462080B582B000AF78607B68802B04D90D48D8
S113463041F22321FEF78CFF0B4B9B6D03F0080323
S1134640002B00D00BE07B6803F007037B60064976
S1134650054BDB6F23F007027B681343CB670837F6
S1134660BD4680BD2875000000800C4080B586B032
S113467000AF0346FB710B46BB7113467B71FB799C
S1134680042B32D801A252F823F000BFD94600000F
S1134690CB460000AF460000A1460000BD46000026
S11346A001233B610223FB6001237B6123E004239C
S11346B03B610823FB6003237B611CE010233B6107
S11346C02023FB6005237B6115E040233B618023AD
S11346D0FB6007237B610EE04FF480733B614FF472
S11346E00073FB6009237B6105E00F4841F2CC2194
S11346F0FEF72EFF14E0BB79002B0ED00B4A3B696A
S113470013627B79002B0BD000BF09487969FEF74F
S11347103BFF0346002BF8D002E0044AFB68136217
S11347201837BD4680BD00BF2875000000800C40CE
S11347302C800C4080B483B000AFEFF310833B6057
S11347403B687B6072B67B6818460C37BD465DF8E3
S1134750047B704780B483B000AF78607B68002B23
S113476000D162B60C37BD465DF8047B704700BFCC
S113477080B487B000AFF860B9607A60FB6803F179
S11347800473DA00BB6813449B007B617B697A681D
S11347901A601C37BD465DF8047B704780B485B051
S11347A000AFF860B9607A60FB681A68BB68DB43E5
S11347B01A407B681A43FB681A601437BD465DF8DB
S11347C0047B704780B582B000AF03463960FB714B
S11347D0FB79002B1FD0FB79012B19D0FB79022B1D
S11347E013D0FB79032B0DD0FB79042B07D0FB7975
S11347F0052B02D141F6FF730FE000230DE04FF6C5
S1134800FF730AE04FF6FF7307E04FF6FF7304E00F
S11348104FF6FF7301E04FF6FF733A68134103F05C
S11348200103002B04D10B4840F25931FEF790FEEE
S11348300949FA793B68012000FA03F31846134644
S1134840DB0013449B000B44103358600837BD460B
S113485080BD00BF3C7500000060004080B582B0A0
S113486000AF03463960FB71FB79002B1FD0FB7945
S1134870012B19D0FB79022B13D0FB79032B0DD01C
S1134880FB79042B07D0FB79052B02D141F6FF738A
S11348900FE000230DE04FF6FF730AE04FF6FF73BD
S11348A007E04FF6FF7304E04FF6FF7301E04FF6A5
S11348B0FF733A68134103F00103002B04D10B4842
S11348C040F28631FEF744FE0949FA793B6801203B
S11348D000FA03F318461346DB0013449B000B4411
S11348E0103318600837BD4680BD00BF3C7500001A
S11348F00060004080B586B000AFB9607A601A46A7
S11349000346FB731346BB7300237B61FB7B002BC5
S11349101FD0FB7B012B19D0FB7B022B13D0FB7B1D
S1134920032B0DD0FB7B042B07D0FB7B052B02D183
S113493041F6FF730FE000230DE04FF6FF730AE02A
S11349404FF6FF7307E04FF6FF7304E04FF6FF7373
S113495001E04FF6FF73BA68134103F00103002B23
S113496003D12248BF21FEF7F3FD7B68072B0ED845
S11349707B689B001A46072303FA02F1FB7B7A68E3
S1134980920093401A481A46FFF708FF10E07B682C
S1134990083B7B617B699B001A46072303FA02F1FB
S11349A0FB7B7A699200934012481A46FFF7F6FEA1
S11349B0BB7B114879681A46FFF7DAFE97F8203076
S11349C00E4879681A46FFF7D3FE0D4A7B68012129
S11349D001FA03F3C2F81C3197F8243009487968C6
S11349E01A46FFF7C5FE1837BD4680BD9075000016
S11349F00061004004610040086100400C61004017
S1134A00006000401061004090B585B000AFB9600F
S1134A107B600346FB731346BB73FB7B002B1FD0E9
S1134A20FB7B012B19D0FB7B022B13D0FB7B032BCD
S1134A300DD0FB7B042B07D0FB7B052B02D141F669
S1134A40FF730FE000230DE04FF6FF730AE04FF60B
S1134A50FF7307E04FF6FF7304E04FF6FF7301E0C6
S1134A604FF6FF73BA68134103F00103002B04D11E
S1134A7037484FF48571FEF76BFDBB7B002B0DD0DF
S1134A807B68002B05D0FB7B1846B968FFF7E6FE70
S1134A9004E0FB7B1846B968FFF794FEBB68072B5C
S1134AA01CD82C4CFA7B2B48F97B0B46DB000B44BF
S1134AB09B0003445968BB689B0018460F2383403E
S1134AC0DB430B40B97BB86880008140194313462F
S1134AD0DB0013449B002344596024E01D4CFA7B03
S1134AE01C48F97B0B46DB000B449B000344083352
S1134AF01968BB6803F18043083B9B0018460F23E9
S1134B008340DB431940B87BBB6803F18043083B17
S1134B109B0000FA03F319431346DB0013449B0084
S1134B20234408331960BB7B002B0DD17B68002B19
S1134B3005D0FB7B1846B968FFF790FE04E0FB7BC9
S1134B401846B968FFF73EFE1437BD4690BD00BF56
S1134B50907500000060004080B483B000AF03464D
S1134B60FB71FB79002B06D0084A084B1B6843F005
S1134B700103136005E0054A044B1B6823F001039D
S1134B8013600C37BD465DF8047B704700A00840F5
S1134B9080B487B000AFF860B9607A60FB6803F155
S1134BA00473DA00BB6813449B007B617B697A68F9
S1134BB01A601C37BD465DF8047B704780B584B02D
S1134BC000AF78601D4B5B68FB607B68002B03D1F2
S1134BD01B484A21FEF7BCFC0020FFF7BDFFFB6821
S1134BE023F4830323F01F03FB607B685B68FA688C
S1134BF01343FB607B681B7A1A46FB681343FB6014
S1134C007B685B7A1A46FB681343FB607B68DB684E
S1134C10FA681343FB607B681B8A1A46FB681343DC
S1134C20FB60064AFB6853607B681B78002B02D04C
S1134C300120FFF791FF1037BD4680BD00A008405A
S1134C40A475000080B485B000AF78600D4B5B683C
S1134C50FB60FB6823F48033FB607B68002B08D087
S1134C60B3F5803F00D005E0FB6843F48033FB607C
S1134C7000E000BF034AFB6853601437BD465DF88B
S1134C80047B704700A0084080B483B000AF0346A3
S1134C900A46FB8013467B717B79002B06D00949B9
S1134CA0084B9A68FB8813438B6006E00549054B63
S1134CB09A68FB88DB4313408B600C37BD465DF874
S1134CC0047B704700A0084080B584B000AFF86052
S1134CD0B9601346FB71FB68072B04DD6E484FF483
S1134CE08171FEF735FCBB68272B04DD6A4840F26E
S1134CF00911FEF72DFCFB68072B00F2C38001A20B
S1134D0052F823F0254D0000514D00007D4D000068
S1134D10A94D0000D54D0000014E00002D4E0000AD
S1134D20594E0000BB681F2B07DCBA68FB795B484F
S1134D3011461A46FFF72CFFAAE0BB68203BBB6074
S1134D40BA68FB79564811461A46FFF721FF9FE0DF
S1134D50BB681F2B07DCBA68FB79524811461A4618
S1134D60FFF716FF94E0BB68203BBB60BA68FB7991
S1134D704D4811461A46FFF70BFF89E0BB681F2B0D
S1134D8007DCBA68FB79494811461A46FFF700FF69
S1134D907EE0BB68203BBB60BA68FB79444811469F
S1134DA01A46FFF7F5FE73E0BB681F2B07DCBA68F1
S1134DB0FB79404811461A46FFF7EAFE68E0BB68F3
S1134DC0203BBB60BA68FB793B4811461A46FFF7A3
S1134DD0DFFE5DE0BB681F2B07DCBA68FB79374850
S1134DE011461A46FFF7D4FE52E0BB68203BBB6075
S1134DF0BA68FB79324811461A46FFF7C9FE47E004
S1134E00BB681F2B07DCBA68FB792E4811461A468B
S1134E10FFF7BEFE3CE0BB68203BBB60BA68FB7991
S1134E20294811461A46FFF7B3FE31E0BB681F2B31
S1134E3007DCBA68FB79254811461A46FFF7A8FE35
S1134E4026E0BB68203BBB60BA68FB79204811466A
S1134E501A46FFF79DFE1BE0BB681F2B07DCBA68F0
S1134E60FB791C4811461A46FFF792FE10E0BB6816
S1134E70203BBB60BA68FB79174811461A46FFF716
S1134E8087FE05E0044840F27311FEF761FB00BFA2
S1134E901037BD4680BD00BFA475000040A0084087
S1134EA050A0084044A0084054A0084048A008402E
S1134EB058A008404CA008405CA00840CCA0084082
S1134EC0B4A00840D0A00840B8A00840D4A008402E
S1134ED0BCA00840D8A00840C0A0084080B586B057
S1134EE000AFF860B9607A60FB68072B04DD5F48A7
S1134EF04FF4C671FEF72CFBFB68072B00F2AC8065
S1134F0001A252F823F000BF294F00004D4F0000CA
S1134F10714F0000954F0000B94F0000E14F0000B1
S1134F200950000031500000514B1B6C7B61BB6881
S1134F30DB437A6913407B61BA687B6813407A6902
S1134F4013437B614A4A7B6913648BE0484B5B6C77
S1134F507B61BB68DB437A6913407B61BA687B6819
S1134F6013407A6913437B61414A7B69536479E056
S1134F703F4B9B6C7B61BB68DB437A6913407B616D
S1134F80BA687B6813407A6913437B61384A7B694A
S1134F90936467E0364BDB6C7B61BB68DB437A6907
S1134FA013407B61BA687B6813407A6913437B6161
S1134FB02F4A7B69D36455E02D4BD3F8CC307B6109
S1134FC0BB68DB437A6913407B61BA687B68134032
S1134FD07A6913437B61264A7B69C2F8CC3041E08D
S1134FE0234BD3F8D0307B61BB68DB437A69134031
S1134FF07B61BA687B6813407A6913437B611C4AFE
S11350007B69C2F8D0302DE0194BD3F8D4307B61E2
S1135010BB68DB437A6913407B61BA687B681340E1
S11350207A6913437B61124A7B69C2F8D43019E070
S11350300F4BD3F8D8307B61BB68DB437A691340EC
S11350407B61BA687B6813407A6913437B61084AC1
S11350507B69C2F8D83005E004484FF4E671FEF7E6
S113506077FA00BF1837BD4680BD00BFA4750000A5
S113507000A0084080B586B000AFF860B9607A60DF
S1135080FB68072B04DD5C484FF4F271FEF760FA0D
S1135090FB68072B00F2AC8001A252F823F000BF9A
S11350A0C1500000E5500000095100002D510000DE
S11350B05151000079510000A1510000C951000074
S11350C04E4B1B6D7B61BB68DB437A6913407B618C
S11350D0BA687B6813407A6913437B61474A7B69EA
S11350E0136586E0454B5B6D7B61BB68DB437A6986
S11350F013407B61BA687B6813407A6913437B6110
S11351003E4A7B69536574E03C4B9B6D7B61BB6895
S1135110DB437A6913407B61BA687B6813407A6920
S113512013437B61354A7B69936562E0334BDB6DE6
S11351307B61BB68DB437A6913407B61BA687B6837
S113514013407A6913437B612C4A7B69D36550E031
S11351502A4BD3F8B4307B61BB68DB437A691340D4
S11351607B61BA687B6813407A6913437B61234A85
S11351707B69C2F8B4303CE0204BD3F8B8307B6193
S1135180BB68DB437A6913407B61BA687B68134070
S11351907A6913437B61194A7B69C2F8B83028E005
S11351A0164BD3F8BC307B61BB68DB437A69134090
S11351B07B61BA687B6813407A6913437B610F4A49
S11351C07B69C2F8BC3014E00C4BD3F8C0307B616F
S11351D0BB68DB437A6913407B61BA687B68134020
S11351E07A6913437B61054A7B69C2F8C03000E0E9
S11351F000BF1837BD4680BDA475000000A008405C
S113520080B483B000AF78600649064B5B6823F432
S1135210E0127B6813434B600C37BD465DF8047B9A
S1135220704700BF00A0084080B487B000AFF860AA
S1135230B9607A60FB6803F10473DA00BB68134455
S11352409B007B617B697A681A601C37BD465DF8F8
S1135250047B704780B582B000AF0346FB71FB79D5
S1135260034800211A46FFF7DFFF0837BD4680BD1B
S11352700000084080B483B000AF0346FB71FB79A3
S1135280002B03D0054B01221A6202E0034B0022DB
S11352901A620C37BD465DF8047B70470000084075
S11352A080B485B000AF78607B681B78002B02D097
S11352B00123FB6001E00023FB607B685B78002B2B
S11352C003D0FB6843F00203FB607B689B78002BF0
S11352D003D0FB6843F00403FB60044AFB681360DB
S11352E01437BD465DF8047B704700BF00000840DA
S11352F080B586B000AFF860B9607A60FB707B68F7
S1135300002B03D14248B721FEF722F9BB68002BDA
S113531003D14048FEF772FEB860FB78202B15D00D
S1135320202B02DC002B05D037E0402B1AD0602B59
S113533027D032E0BB681A097B689A4203D234480A
S1135340DD21FEF705F910237B612BE0BB68DA0849
S11353507B689A4203D22E48E221FEF7F9F808232B
S11353607B611FE0BB682C4AA2FB03239A087B687D
S11353709A4203D22648E721FEF7EAF806237B6126
S113538010E0BB689A087B689A4203D22048EC215B
S1135390FEF7DEF804237B6104E01D48F221FEF7EA
S11353A0D7F832E0BB689A007B69796801FB03F3A4
S11353B05B0813443B617B697A6802FB03F33A6937
S11353C0B2FBF3F33B613B69043B3B613B699B01EB
S11353D03B613B69114A934204D90D484FF48471EF
S11353E0FEF7B6F83A690D4B13403B61FB681B6846
S11353F023F06002FB681A60FB681A68FB781A43A2
S1135400FB681A60FB683A695A611837BD4680BD6B
S1135410B875000040810400ABAAAAAAC0FF1F000F
S113542080B584B000AF78600B46FB707B68144A8B
S1135430934214D07B68134A934210D07B68124A7B
S113544093420CD07B68114A934208D07B68104A7F
S1135450934204D00F4840F20F21FEF779F8FB780D
S1135460DB43FB60FB6803F00503FB60FB685A0049
S11354707B68DA60FA787B68DA601037BD4680BDF5
S113548000C0004000C4004000C8004000E00040EC
S113549000E40040B875000080B582B000AF7860C9
S11354A039607B68264A934214D07B68254A93422C
S11354B010D07B68244A93420CD07B68234A9342E1
S11354C008D07B68224A934204D0224840F2362115
S11354D0FEF73EF8786800F03FF83B689B7C002BB1
S11354E005D07B681B6843F080427B681A603B6888
S11354F0DB7C002B07D03B681B7D43F01003DBB241
S11355001A467B689A653B685B7B1A463B681B8A34
S113551013433A68D2891A437B685A603B685968D6
S11355203B689A683B681B7B7868FFF7E1FE3B6841
S11355301B781A467B68DA600837BD4680BD00BF19
S113554000C0004000C4004000C8004000E000402B
S113555000E40040B875000080B582B000AF786008
S11355607B68254A934214D07B68244A934210D026
S11355707B68234A93420CD07B68224A934208D02A
S11355807B68214A934204D0204840F24731FDF71A
S1135590DFFF7B6840F6AA62DA607B6800221A604B
S11355A07B6841F205025A607B6800229A607B683E
S11355B000225A617B680022DA647B6841F6F97242
S11355C09A647B6800225A657B680B4A934202D135
S11355D07B6800221A657B6800229A657B68074A0B
S11355E0934203D07B68064A934202D17B6800222F
S11355F0DA650837BD4680BD00C0004000C40040E5
S113560000C8004000E0004000E40040B87500001D
S113561080B483B000AF786000BF7B681B6903F07F
S11356208003002BF9D07B68DB69DBB218460C37AA
S1135630BD465DF8047B704780B483B000AF7860EA
S11356400B46FB7000BF7B681B6903F04003002B13
S1135650F9D0FA787B685A630C37BD465DF8047B51
S1135660704700BF80B483B000AF0346FB71FB7981
S1135670002B03D0054B01221A6602E0034B0022E3
S11356801A660C37BD465DF8047B704700A00840DD
S113569080B483B000AF786000BF054B5A6E7B685E
S11356A01340002BF9D10C37BD465DF8047B7047DD
S11356B000A0084080B483B000AF78600549054B72
S11356C09A6A7B68DB4313408B620C37BD465DF8F6
S11356D0047B704700A0084080B500AF0020284933
S11356E00022FFF7FBFB012025490022FFF7F6FB10
S11356F0022023490022FFF7F1FB03202049002266
S1135700FFF7ECFB04201E490022FFF7E7FB05200E
S11357101B490022FFF7E2FB062019490022FFF78C
S1135720DDFB072016490022FFF7D8FB0020FF21EC
S11357300022FFF79FFC0120FF210022FFF79AFCC3
S11357400220FF210022FFF795FC0320FF21002205
S1135750FFF790FC0420FF210022FFF78BFC0520BB
S1135760FF210022FFF786FC0620FF210022FFF71D
S113577081FC0720FF210022FFF77CFC80BD00BFD5
S113578000F00FF080B500AF072026490022FFF794
S1135790A5FB062024490022FFF7A0FB052022498F
S11357A00022FFF79BFB04201F490022FFF796FB12
S11357B003201D490022FFF791FB02201A49002211
S11357C0FFF78CFB012018490022FFF787FB00201C
S11357D04FF020410022FFF781FB07200721002220
S11357E0FFF748FC062007210022FFF743FC0520B1
S11357F007210022FFF73EFC042007210022FFF7C7
S113580039FC032007210022FFF734FC0220072182
S11358100022FFF72FFC012007210022FFF72AFCBA
S113582000BF80BD00E00F5000E00FF080B582B0F3
S113583000AF0346FB7125480121FEF771FB2448A4
S11358400321FEF781FD23484021FEF707FA0120DA
S1135850FEF7E6FE20480121FEF762FB4FF0FF3021
S1135860FFF728FF1D48FFF7A9F908200121FFF7DA
S11358700BFA10200121FFF707FA80200121FFF71E
S113588003FA4FF480700121FFF7FEF94FF4007022
S11358900121FFF7F9F9FB79002B0DD04FF44020DB
S11358A0FFF7AEFC4FF48030FFF7CCF90C4A0C4BF9
S11358B0DB6F43F00803D367FFF70EFF4FF0FF30B1
S11358C0FFF7E6FE0837BD4680BD00BF0043020077
S11358D002001A00600026000036280084780000C8
S11358E000800C4080B58AB000AF7860786801F021
S11358F004F80346BB6100233B624FF0FF30FFF71F
S1135900C7FE0120FFF7AEFEFFF73CFF00233B621A
S113591046E03A6ABB699A4203DA7B681B787B6289
S113592001E020237B627B6A203B7B62214A7B6A05
S113593032F81330FB820023FB6128E01E493A6AE7
S11359401346DB009B1A9B00CA18FB6913440833F7
S11359509B793B6118493A6A1346DB009B1A9B000A
S1135960FA6913440B441B78FB60FA8AFB6942FA18
S113597003F303F00103002B06D0FA683B691046D9
S113598019460122FFF7A0F9FB690133FB61FB69AA
S11359900D2BD3DD7B6801337B603B6A01333B62B3
S11359A03B6A062BB5DD0020FFF75CFE2837BD46B9
S11359B080BD00BFCC770000CC75000080B485B0FA
S11359C000AF78607B6803F00703FB600C4BDB6877
S11359D0BB60BA684FF6FF031340BB60FB681A0252
S11359E0BB68134343F0BF6343F40033BB60044A12
S11359F0BB68D3601437BD465DF8047B704700BFB5
S1135A0000ED00E080B483B000AF0346FB710849A9
S1135A1097F907305B09FA7902F01F02012000FAB6
S1135A2002F241F823200C37BD465DF8047B704731
S1135A3000E100E080B483B000AF0346FB71094984
S1135A4097F907305B09FA7902F01F02012000FA86
S1135A5002F2603341F823200C37BD465DF8047B25
S1135A60704700BF00E100E080B483B000AF03469C
S1135A703960FB7197F90730002B0BDA0D49FB797C
S1135A8003F00F03043B3A68D2B25201D2B20B4482
S1135A901A7609E0084997F907303A68D2B25201F8
S1135AA0D2B20B4483F800230C37BD465DF8047B67
S1135AB0704700BF00ED00E000E100E080B483B077
S1135AC000AF7860044A7B68C2F81C310C37BD46CD
S1135AD05DF8047B704700BF0060004080B483B071
S1135AE000AF074BD3F810317B60054BD3F814217A
S1135AF07B68134018460C37BD465DF8047B70473D
S1135B000060004080B582B002AF0120092101226B
S1135B100023FEF779FF0123009301230193012061
S1135B20092109220023FEF7E5FE01200A210122B2
S1135B300023FEF769FF0123009301230193012051
S1135B400A210A220023FEF7D5FE0B20FFF772FF7D
S1135B500B20FFF757FF0B20BF21FFF785FF012024
S1135B60FFF768FF0120FFF74DFF0120BF21FFF77A
S1135B707BFF1420BF21FFF777FF0020FFF71EFFF4
S1135B80BD4680BD80B582B000AF00233B601248A3
S1135B9000F0B6FDFFF7A2FF02464AF6AA2313401F
S1135BA07B607868FFF78AFF0120FAF7DBFC0B4B78
S1135BB01A683B4610461946FBF734FF3B68002B36
S1135BC007D0074B4FF080521A60BFF34F8FBFF3DB
S1135BD06F8F0837BD4680BD98780000FC250020F3
S1135BE004ED00E080B582B000AFFFF777FF024616
S1135BF045F2555313407B607868FFF75FFF00233D
S1135C003B600D4800F07CFD0120FAF7ABFC0B4B28
S1135C101A683B4610461946FBF704FF3B68002B05
S1135C2007D0074B4FF080521A60BFF34F8FBFF37A
S1135C306F8F0837BD4680BDB47800005C26002015
S1135C4004ED00E080B582B002AF00F08BF800F004
S1135C50A3FB012000210322FBF734FD0246334B52
S1135C601A60012000210322FBF72CFD0246304B71
S1135C701A60012000210322FBF724FD02462D4B6C
S1135C801A60322001210022FBF71CFD02462A4B38
S1135C901A60052001210022FBF714FD0246274B60
S1135CA01A600223009300230193254825498C227E
S1135CB00023FCF79BF9022300930023019322485D
S1135CC020498C220023FCF791F90323009300233D
S1135CD001931E481B498C220023FCF787F90323F8
S1135CE00093002301931A4816498C220023FCF7E1
